{
  "contractName": "TestCrowdFundingWithDeadline",
  "abi": [
    {
      "inputs": [
        {
          "internalType": "string",
          "name": "contractName",
          "type": "string"
        },
        {
          "internalType": "uint256",
          "name": "targetAmountEth",
          "type": "uint256"
        },
        {
          "internalType": "uint256",
          "name": "durationInMin",
          "type": "uint256"
        },
        {
          "internalType": "address payable",
          "name": "beneficiaryAddress",
          "type": "address"
        }
      ],
      "stateMutability": "nonpayable",
      "type": "constructor"
    },
    {
      "anonymous": false,
      "inputs": [
        {
          "indexed": false,
          "internalType": "address",
          "name": "addr",
          "type": "address"
        },
        {
          "indexed": false,
          "internalType": "uint256",
          "name": "totalCollected",
          "type": "uint256"
        },
        {
          "indexed": false,
          "internalType": "bool",
          "name": "succeeded",
          "type": "bool"
        }
      ],
      "name": "CampaignFinished",
      "type": "event"
    },
    {
      "inputs": [
        {
          "internalType": "address",
          "name": "",
          "type": "address"
        }
      ],
      "name": "amounts",
      "outputs": [
        {
          "internalType": "uint256",
          "name": "",
          "type": "uint256"
        }
      ],
      "stateMutability": "view",
      "type": "function"
    },
    {
      "inputs": [],
      "name": "beforeDeadline",
      "outputs": [
        {
          "internalType": "bool",
          "name": "",
          "type": "bool"
        }
      ],
      "stateMutability": "view",
      "type": "function"
    },
    {
      "inputs": [],
      "name": "beneficiary",
      "outputs": [
        {
          "internalType": "address payable",
          "name": "",
          "type": "address"
        }
      ],
      "stateMutability": "view",
      "type": "function"
    },
    {
      "inputs": [],
      "name": "collect",
      "outputs": [],
      "stateMutability": "nonpayable",
      "type": "function"
    },
    {
      "inputs": [],
      "name": "collected",
      "outputs": [
        {
          "internalType": "bool",
          "name": "",
          "type": "bool"
        }
      ],
      "stateMutability": "view",
      "type": "function"
    },
    {
      "inputs": [],
      "name": "contribute",
      "outputs": [],
      "stateMutability": "payable",
      "type": "function"
    },
    {
      "inputs": [],
      "name": "finishCrowdFunding",
      "outputs": [],
      "stateMutability": "nonpayable",
      "type": "function"
    },
    {
      "inputs": [],
      "name": "fundingDeadline",
      "outputs": [
        {
          "internalType": "uint256",
          "name": "",
          "type": "uint256"
        }
      ],
      "stateMutability": "view",
      "type": "function"
    },
    {
      "inputs": [],
      "name": "getBlockTime",
      "outputs": [
        {
          "internalType": "uint256",
          "name": "",
          "type": "uint256"
        }
      ],
      "stateMutability": "view",
      "type": "function"
    },
    {
      "inputs": [],
      "name": "name",
      "outputs": [
        {
          "internalType": "string",
          "name": "",
          "type": "string"
        }
      ],
      "stateMutability": "view",
      "type": "function"
    },
    {
      "inputs": [],
      "name": "state",
      "outputs": [
        {
          "internalType": "enum CrowdFundingWithDeadline.State",
          "name": "",
          "type": "uint8"
        }
      ],
      "stateMutability": "view",
      "type": "function"
    },
    {
      "inputs": [],
      "name": "targetAmount",
      "outputs": [
        {
          "internalType": "uint256",
          "name": "",
          "type": "uint256"
        }
      ],
      "stateMutability": "view",
      "type": "function"
    },
    {
      "inputs": [],
      "name": "totalCollected",
      "outputs": [
        {
          "internalType": "uint256",
          "name": "",
          "type": "uint256"
        }
      ],
      "stateMutability": "view",
      "type": "function"
    },
    {
      "inputs": [],
      "name": "withdraw",
      "outputs": [],
      "stateMutability": "nonpayable",
      "type": "function"
    },
    {
      "inputs": [
        {
          "internalType": "uint256",
          "name": "newTime",
          "type": "uint256"
        }
      ],
      "name": "setCurrentTime",
      "outputs": [],
      "stateMutability": "nonpayable",
      "type": "function"
    }
  ],
  "bytecode": "0x60806040523480156200001157600080fd5b50604051620017a3380380620017a383398181016040528101906200003791906200050a565b838383838360009080519060200190620000539291906200021d565b5073__Utils_________________________________63d8916bb9846040518263ffffffff1660e01b81526004016200008d9190620005ac565b60206040518083038186803b158015620000a657600080fd5b505af4158015620000bb573d6000803e3d6000fd5b505050506040513d601f19601f82011682018060405250810190620000e19190620005c9565b60018190555073__Utils_________________________________63cd6fb042836040518263ffffffff1660e01b8152600401620001209190620005ac565b60206040518083038186803b1580156200013957600080fd5b505af41580156200014e573d6000803e3d6000fd5b505050506040513d601f19601f82011682018060405250810190620001749190620005c9565b620001846200021360201b60201c565b6200019091906200062a565b60028190555080600360006101000a81548173ffffffffffffffffffffffffffffffffffffffff021916908373ffffffffffffffffffffffffffffffffffffffff1602179055506000600360146101000a81548160ff021916908360038111156200020057620001ff62000687565b5b021790555050505050505050506200071b565b6000600754905090565b8280546200022b90620006e5565b90600052602060002090601f0160209004810192826200024f57600085556200029b565b82601f106200026a57805160ff19168380011785556200029b565b828001600101855582156200029b579182015b828111156200029a5782518255916020019190600101906200027d565b5b509050620002aa9190620002ae565b5090565b5b80821115620002c9576000816000905550600101620002af565b5090565b6000604051905090565b600080fd5b600080fd5b600080fd5b600080fd5b6000601f19601f8301169050919050565b7f4e487b7100000000000000000000000000000000000000000000000000000000600052604160045260246000fd5b6200033682620002eb565b810181811067ffffffffffffffff82111715620003585762000357620002fc565b5b80604052505050565b60006200036d620002cd565b90506200037b82826200032b565b919050565b600067ffffffffffffffff8211156200039e576200039d620002fc565b5b620003a982620002eb565b9050602081019050919050565b60005b83811015620003d6578082015181840152602081019050620003b9565b83811115620003e6576000848401525b50505050565b600062000403620003fd8462000380565b62000361565b905082815260208101848484011115620004225762000421620002e6565b5b6200042f848285620003b6565b509392505050565b600082601f8301126200044f576200044e620002e1565b5b815162000461848260208601620003ec565b91505092915050565b6000819050919050565b6200047f816200046a565b81146200048b57600080fd5b50565b6000815190506200049f8162000474565b92915050565b600073ffffffffffffffffffffffffffffffffffffffff82169050919050565b6000620004d282620004a5565b9050919050565b620004e481620004c5565b8114620004f057600080fd5b50565b6000815190506200050481620004d9565b92915050565b60008060008060808587031215620005275762000526620002d7565b5b600085015167ffffffffffffffff811115620005485762000547620002dc565b5b620005568782880162000437565b945050602062000569878288016200048e565b93505060406200057c878288016200048e565b92505060606200058f87828801620004f3565b91505092959194509250565b620005a6816200046a565b82525050565b6000602082019050620005c360008301846200059b565b92915050565b600060208284031215620005e257620005e1620002d7565b5b6000620005f2848285016200048e565b91505092915050565b7f4e487b7100000000000000000000000000000000000000000000000000000000600052601160045260246000fd5b600062000637826200046a565b915062000644836200046a565b9250827fffffffffffffffffffffffffffffffffffffffffffffffffffffffffffffffff038211156200067c576200067b620005fb565b5b828201905092915050565b7f4e487b7100000000000000000000000000000000000000000000000000000000600052602160045260246000fd5b7f4e487b7100000000000000000000000000000000000000000000000000000000600052602260045260246000fd5b60006002820490506001821680620006fe57607f821691505b60208210811415620007155762000714620006b6565b5b50919050565b611078806200072b6000396000f3fe6080604052600436106100e85760003560e01c8063796b23bb1161008a578063c19d93fb11610059578063c19d93fb146102ae578063d7bb99ba146102d9578063e29eb836146102e3578063e52253811461030e576100e8565b8063796b23bb1461020257806384bcefd41461022d57806387ceff0914610258578063953b8fb814610283576100e8565b806338af3eed116100c657806338af3eed146101585780633ccfd60b1461018357806355a3b2c11461019a57806368bc0041146101d7576100e8565b806306fdde03146100ed578063083dca111461011857806322f8e5661461012f575b600080fd5b3480156100f957600080fd5b50610102610325565b60405161010f9190610afd565b60405180910390f35b34801561012457600080fd5b5061012d6103b3565b005b34801561013b57600080fd5b5061015660048036038101906101519190610b5a565b610531565b005b34801561016457600080fd5b5061016d61053b565b60405161017a9190610bc8565b60405180910390f35b34801561018f57600080fd5b50610198610561565b005b3480156101a657600080fd5b506101c160048036038101906101bc9190610c21565b610765565b6040516101ce9190610c5d565b60405180910390f35b3480156101e357600080fd5b506101ec61077d565b6040516101f99190610c93565b60405180910390f35b34801561020e57600080fd5b50610217610790565b6040516102249190610c5d565b60405180910390f35b34801561023957600080fd5b50610242610796565b60405161024f9190610c93565b60405180910390f35b34801561026457600080fd5b5061026d6107a9565b60405161027a9190610c5d565b60405180910390f35b34801561028f57600080fd5b506102986107b1565b6040516102a59190610c5d565b60405180910390f35b3480156102ba57600080fd5b506102c36107b7565b6040516102d09190610d25565b60405180910390f35b6102e16107ca565b005b3480156102ef57600080fd5b506102f8610921565b6040516103059190610c5d565b60405180910390f35b34801561031a57600080fd5b50610323610927565b005b6000805461033290610d6f565b80601f016020809104026020016040519081016040528092919081815260200182805461035e90610d6f565b80156103ab5780601f10610380576101008083540402835291602001916103ab565b820191906000526020600020905b81548152906001019060200180831161038e57829003601f168201915b505050505081565b60008060038111156103c8576103c7610cae565b5b600360149054906101000a900460ff1660038111156103ea576103e9610cae565b5b1461042a576040517f08c379a000000000000000000000000000000000000000000000000000000000815260040161042190610ded565b60405180910390fd5b61043261077d565b15610472576040517f08c379a000000000000000000000000000000000000000000000000000000000815260040161046990610e7f565b60405180910390fd5b600560009054906101000a900460ff166104b6576001600360146101000a81548160ff021916908360038111156104ac576104ab610cae565b5b02179055506104e2565b6002600360146101000a81548160ff021916908360038111156104dc576104db610cae565b5b02179055505b7f6fa7e87ebbd87ed4f1c40bba63144f68fd2bb022fb748ab3b61b5411c39bd47433600654600560009054906101000a900460ff1660405161052693929190610eae565b60405180910390a150565b8060078190555050565b600360009054906101000a900473ffffffffffffffffffffffffffffffffffffffff1681565b600180600381111561057657610575610cae565b5b600360149054906101000a900460ff16600381111561059857610597610cae565b5b146105d8576040517f08c379a00000000000000000000000000000000000000000000000000000000081526004016105cf90610ded565b60405180910390fd5b6000600460003373ffffffffffffffffffffffffffffffffffffffff1673ffffffffffffffffffffffffffffffffffffffff168152602001908152602001600020541161065a576040517f08c379a000000000000000000000000000000000000000000000000000000000815260040161065190610f31565b60405180910390fd5b6000600460003373ffffffffffffffffffffffffffffffffffffffff1673ffffffffffffffffffffffffffffffffffffffff1681526020019081526020016000205490506000600460003373ffffffffffffffffffffffffffffffffffffffff1673ffffffffffffffffffffffffffffffffffffffff168152602001908152602001600020819055503373ffffffffffffffffffffffffffffffffffffffff166108fc829081150290604051600060405180830381858888f193505050506107615780600460003373ffffffffffffffffffffffffffffffffffffffff1673ffffffffffffffffffffffffffffffffffffffff168152602001908152602001600020819055505b5050565b60046020528060005260406000206000915090505481565b600060025461078a610a5a565b10905090565b60025481565b600560009054906101000a900460ff1681565b600042905090565b60015481565b600360149054906101000a900460ff1681565b60008060038111156107df576107de610cae565b5b600360149054906101000a900460ff16600381111561080157610800610cae565b5b14610841576040517f08c379a000000000000000000000000000000000000000000000000000000000815260040161083890610ded565b60405180910390fd5b61084961077d565b610888576040517f08c379a000000000000000000000000000000000000000000000000000000000815260040161087f90610f9d565b60405180910390fd5b34600460003373ffffffffffffffffffffffffffffffffffffffff1673ffffffffffffffffffffffffffffffffffffffff16815260200190815260200160002060008282546108d79190610fec565b9250508190555034600660008282546108f09190610fec565b925050819055506001546006541061091e576001600560006101000a81548160ff0219169083151502179055505b50565b60065481565b600280600381111561093c5761093b610cae565b5b600360149054906101000a900460ff16600381111561095e5761095d610cae565b5b1461099e576040517f08c379a000000000000000000000000000000000000000000000000000000000815260040161099590610ded565b60405180910390fd5b600360009054906101000a900473ffffffffffffffffffffffffffffffffffffffff1673ffffffffffffffffffffffffffffffffffffffff166108fc6006549081150290604051600060405180830381858888f1935050505015610a2b5760038060146101000a81548160ff02191690836003811115610a2157610a20610cae565b5b0217905550610a57565b6001600360146101000a81548160ff02191690836003811115610a5157610a50610cae565b5b02179055505b50565b6000600754905090565b600081519050919050565b600082825260208201905092915050565b60005b83811015610a9e578082015181840152602081019050610a83565b83811115610aad576000848401525b50505050565b6000601f19601f8301169050919050565b6000610acf82610a64565b610ad98185610a6f565b9350610ae9818560208601610a80565b610af281610ab3565b840191505092915050565b60006020820190508181036000830152610b178184610ac4565b905092915050565b600080fd5b6000819050919050565b610b3781610b24565b8114610b4257600080fd5b50565b600081359050610b5481610b2e565b92915050565b600060208284031215610b7057610b6f610b1f565b5b6000610b7e84828501610b45565b91505092915050565b600073ffffffffffffffffffffffffffffffffffffffff82169050919050565b6000610bb282610b87565b9050919050565b610bc281610ba7565b82525050565b6000602082019050610bdd6000830184610bb9565b92915050565b6000610bee82610b87565b9050919050565b610bfe81610be3565b8114610c0957600080fd5b50565b600081359050610c1b81610bf5565b92915050565b600060208284031215610c3757610c36610b1f565b5b6000610c4584828501610c0c565b91505092915050565b610c5781610b24565b82525050565b6000602082019050610c726000830184610c4e565b92915050565b60008115159050919050565b610c8d81610c78565b82525050565b6000602082019050610ca86000830184610c84565b92915050565b7f4e487b7100000000000000000000000000000000000000000000000000000000600052602160045260246000fd5b60048110610cee57610ced610cae565b5b50565b6000819050610cff82610cdd565b919050565b6000610d0f82610cf1565b9050919050565b610d1f81610d04565b82525050565b6000602082019050610d3a6000830184610d16565b92915050565b7f4e487b7100000000000000000000000000000000000000000000000000000000600052602260045260246000fd5b60006002820490506001821680610d8757607f821691505b60208210811415610d9b57610d9a610d40565b5b50919050565b7f496e76616c696420536174650000000000000000000000000000000000000000600082015250565b6000610dd7600c83610a6f565b9150610de282610da1565b602082019050919050565b60006020820190508181036000830152610e0681610dca565b9050919050565b7f43616e6e6f742066696e6973682063616d706169676e206265666f726520612060008201527f646561646c696e65000000000000000000000000000000000000000000000000602082015250565b6000610e69602883610a6f565b9150610e7482610e0d565b604082019050919050565b60006020820190508181036000830152610e9881610e5c565b9050919050565b610ea881610be3565b82525050565b6000606082019050610ec36000830186610e9f565b610ed06020830185610c4e565b610edd6040830184610c84565b949350505050565b7f4e6f7468696e672077617320636f6e7472696275746564000000000000000000600082015250565b6000610f1b601783610a6f565b9150610f2682610ee5565b602082019050919050565b60006020820190508181036000830152610f4a81610f0e565b9050919050565b7f446561644c696e65000000000000000000000000000000000000000000000000600082015250565b6000610f87600883610a6f565b9150610f9282610f51565b602082019050919050565b60006020820190508181036000830152610fb681610f7a565b9050919050565b7f4e487b7100000000000000000000000000000000000000000000000000000000600052601160045260246000fd5b6000610ff782610b24565b915061100283610b24565b9250827fffffffffffffffffffffffffffffffffffffffffffffffffffffffffffffffff0382111561103757611036610fbd565b5b82820190509291505056fea2646970667358221220bdb9bf20cb2d62b94a4642158c22c09513dc523b931aebe6e8788a020be4e1a564736f6c63430008090033",
  "deployedBytecode": "0x6080604052600436106100e85760003560e01c8063796b23bb1161008a578063c19d93fb11610059578063c19d93fb146102ae578063d7bb99ba146102d9578063e29eb836146102e3578063e52253811461030e576100e8565b8063796b23bb1461020257806384bcefd41461022d57806387ceff0914610258578063953b8fb814610283576100e8565b806338af3eed116100c657806338af3eed146101585780633ccfd60b1461018357806355a3b2c11461019a57806368bc0041146101d7576100e8565b806306fdde03146100ed578063083dca111461011857806322f8e5661461012f575b600080fd5b3480156100f957600080fd5b50610102610325565b60405161010f9190610afd565b60405180910390f35b34801561012457600080fd5b5061012d6103b3565b005b34801561013b57600080fd5b5061015660048036038101906101519190610b5a565b610531565b005b34801561016457600080fd5b5061016d61053b565b60405161017a9190610bc8565b60405180910390f35b34801561018f57600080fd5b50610198610561565b005b3480156101a657600080fd5b506101c160048036038101906101bc9190610c21565b610765565b6040516101ce9190610c5d565b60405180910390f35b3480156101e357600080fd5b506101ec61077d565b6040516101f99190610c93565b60405180910390f35b34801561020e57600080fd5b50610217610790565b6040516102249190610c5d565b60405180910390f35b34801561023957600080fd5b50610242610796565b60405161024f9190610c93565b60405180910390f35b34801561026457600080fd5b5061026d6107a9565b60405161027a9190610c5d565b60405180910390f35b34801561028f57600080fd5b506102986107b1565b6040516102a59190610c5d565b60405180910390f35b3480156102ba57600080fd5b506102c36107b7565b6040516102d09190610d25565b60405180910390f35b6102e16107ca565b005b3480156102ef57600080fd5b506102f8610921565b6040516103059190610c5d565b60405180910390f35b34801561031a57600080fd5b50610323610927565b005b6000805461033290610d6f565b80601f016020809104026020016040519081016040528092919081815260200182805461035e90610d6f565b80156103ab5780601f10610380576101008083540402835291602001916103ab565b820191906000526020600020905b81548152906001019060200180831161038e57829003601f168201915b505050505081565b60008060038111156103c8576103c7610cae565b5b600360149054906101000a900460ff1660038111156103ea576103e9610cae565b5b1461042a576040517f08c379a000000000000000000000000000000000000000000000000000000000815260040161042190610ded565b60405180910390fd5b61043261077d565b15610472576040517f08c379a000000000000000000000000000000000000000000000000000000000815260040161046990610e7f565b60405180910390fd5b600560009054906101000a900460ff166104b6576001600360146101000a81548160ff021916908360038111156104ac576104ab610cae565b5b02179055506104e2565b6002600360146101000a81548160ff021916908360038111156104dc576104db610cae565b5b02179055505b7f6fa7e87ebbd87ed4f1c40bba63144f68fd2bb022fb748ab3b61b5411c39bd47433600654600560009054906101000a900460ff1660405161052693929190610eae565b60405180910390a150565b8060078190555050565b600360009054906101000a900473ffffffffffffffffffffffffffffffffffffffff1681565b600180600381111561057657610575610cae565b5b600360149054906101000a900460ff16600381111561059857610597610cae565b5b146105d8576040517f08c379a00000000000000000000000000000000000000000000000000000000081526004016105cf90610ded565b60405180910390fd5b6000600460003373ffffffffffffffffffffffffffffffffffffffff1673ffffffffffffffffffffffffffffffffffffffff168152602001908152602001600020541161065a576040517f08c379a000000000000000000000000000000000000000000000000000000000815260040161065190610f31565b60405180910390fd5b6000600460003373ffffffffffffffffffffffffffffffffffffffff1673ffffffffffffffffffffffffffffffffffffffff1681526020019081526020016000205490506000600460003373ffffffffffffffffffffffffffffffffffffffff1673ffffffffffffffffffffffffffffffffffffffff168152602001908152602001600020819055503373ffffffffffffffffffffffffffffffffffffffff166108fc829081150290604051600060405180830381858888f193505050506107615780600460003373ffffffffffffffffffffffffffffffffffffffff1673ffffffffffffffffffffffffffffffffffffffff168152602001908152602001600020819055505b5050565b60046020528060005260406000206000915090505481565b600060025461078a610a5a565b10905090565b60025481565b600560009054906101000a900460ff1681565b600042905090565b60015481565b600360149054906101000a900460ff1681565b60008060038111156107df576107de610cae565b5b600360149054906101000a900460ff16600381111561080157610800610cae565b5b14610841576040517f08c379a000000000000000000000000000000000000000000000000000000000815260040161083890610ded565b60405180910390fd5b61084961077d565b610888576040517f08c379a000000000000000000000000000000000000000000000000000000000815260040161087f90610f9d565b60405180910390fd5b34600460003373ffffffffffffffffffffffffffffffffffffffff1673ffffffffffffffffffffffffffffffffffffffff16815260200190815260200160002060008282546108d79190610fec565b9250508190555034600660008282546108f09190610fec565b925050819055506001546006541061091e576001600560006101000a81548160ff0219169083151502179055505b50565b60065481565b600280600381111561093c5761093b610cae565b5b600360149054906101000a900460ff16600381111561095e5761095d610cae565b5b1461099e576040517f08c379a000000000000000000000000000000000000000000000000000000000815260040161099590610ded565b60405180910390fd5b600360009054906101000a900473ffffffffffffffffffffffffffffffffffffffff1673ffffffffffffffffffffffffffffffffffffffff166108fc6006549081150290604051600060405180830381858888f1935050505015610a2b5760038060146101000a81548160ff02191690836003811115610a2157610a20610cae565b5b0217905550610a57565b6001600360146101000a81548160ff02191690836003811115610a5157610a50610cae565b5b02179055505b50565b6000600754905090565b600081519050919050565b600082825260208201905092915050565b60005b83811015610a9e578082015181840152602081019050610a83565b83811115610aad576000848401525b50505050565b6000601f19601f8301169050919050565b6000610acf82610a64565b610ad98185610a6f565b9350610ae9818560208601610a80565b610af281610ab3565b840191505092915050565b60006020820190508181036000830152610b178184610ac4565b905092915050565b600080fd5b6000819050919050565b610b3781610b24565b8114610b4257600080fd5b50565b600081359050610b5481610b2e565b92915050565b600060208284031215610b7057610b6f610b1f565b5b6000610b7e84828501610b45565b91505092915050565b600073ffffffffffffffffffffffffffffffffffffffff82169050919050565b6000610bb282610b87565b9050919050565b610bc281610ba7565b82525050565b6000602082019050610bdd6000830184610bb9565b92915050565b6000610bee82610b87565b9050919050565b610bfe81610be3565b8114610c0957600080fd5b50565b600081359050610c1b81610bf5565b92915050565b600060208284031215610c3757610c36610b1f565b5b6000610c4584828501610c0c565b91505092915050565b610c5781610b24565b82525050565b6000602082019050610c726000830184610c4e565b92915050565b60008115159050919050565b610c8d81610c78565b82525050565b6000602082019050610ca86000830184610c84565b92915050565b7f4e487b7100000000000000000000000000000000000000000000000000000000600052602160045260246000fd5b60048110610cee57610ced610cae565b5b50565b6000819050610cff82610cdd565b919050565b6000610d0f82610cf1565b9050919050565b610d1f81610d04565b82525050565b6000602082019050610d3a6000830184610d16565b92915050565b7f4e487b7100000000000000000000000000000000000000000000000000000000600052602260045260246000fd5b60006002820490506001821680610d8757607f821691505b60208210811415610d9b57610d9a610d40565b5b50919050565b7f496e76616c696420536174650000000000000000000000000000000000000000600082015250565b6000610dd7600c83610a6f565b9150610de282610da1565b602082019050919050565b60006020820190508181036000830152610e0681610dca565b9050919050565b7f43616e6e6f742066696e6973682063616d706169676e206265666f726520612060008201527f646561646c696e65000000000000000000000000000000000000000000000000602082015250565b6000610e69602883610a6f565b9150610e7482610e0d565b604082019050919050565b60006020820190508181036000830152610e9881610e5c565b9050919050565b610ea881610be3565b82525050565b6000606082019050610ec36000830186610e9f565b610ed06020830185610c4e565b610edd6040830184610c84565b949350505050565b7f4e6f7468696e672077617320636f6e7472696275746564000000000000000000600082015250565b6000610f1b601783610a6f565b9150610f2682610ee5565b602082019050919050565b60006020820190508181036000830152610f4a81610f0e565b9050919050565b7f446561644c696e65000000000000000000000000000000000000000000000000600082015250565b6000610f87600883610a6f565b9150610f9282610f51565b602082019050919050565b60006020820190508181036000830152610fb681610f7a565b9050919050565b7f4e487b7100000000000000000000000000000000000000000000000000000000600052601160045260246000fd5b6000610ff782610b24565b915061100283610b24565b9250827fffffffffffffffffffffffffffffffffffffffffffffffffffffffffffffffff0382111561103757611036610fbd565b5b82820190509291505056fea2646970667358221220bdb9bf20cb2d62b94a4642158c22c09513dc523b931aebe6e8788a020be4e1a564736f6c63430008090033",
  "immutableReferences": {},
  "source": "// SPDX-License-Identifier: GPL-3.0\npragma solidity >=0.8.9 <=0.9.0;\n\nimport \"../contracts/CrowdFundingWithDeadline.sol\";\n\ncontract TestCrowdFundingWithDeadline is CrowdFundingWithDeadline {\n    uint256 time;\n\n    constructor(\n        string memory contractName,\n        uint256 targetAmountEth,\n        uint256 durationInMin,\n        address payable beneficiaryAddress\n    )\n        CrowdFundingWithDeadline(\n            contractName,\n            targetAmountEth,\n            durationInMin,\n            beneficiaryAddress\n        )\n    {}\n\n    function currentTime() internal view override returns (uint256) {\n        return time;\n    }\n\n    function setCurrentTime(uint256 newTime) public {\n        time = newTime;\n    }\n}\n",
  "sourcePath": "/home/mlibre/Data/projects/blockchain/Ethereum/Truffle/contracts/TestCrowdFundingWithDeadline.sol",
  "compiler": {
    "name": "solc",
    "version": "0.8.9+commit.e5eed63a.Emscripten.clang"
  },
  "schemaVersion": "3.3.4",
  "updatedAt": "2021-11-06T18:46:15.001Z",
  "networkType": "ethereum",
  "devdoc": {
    "kind": "dev",
    "methods": {},
    "version": 1
  },
  "userdoc": {
    "kind": "user",
    "methods": {},
    "version": 1
  }
}