{
  "contractName": "Utils",
  "abi": [
    {
      "inputs": [
        {
          "internalType": "uint256",
          "name": "sumInEth",
          "type": "uint256"
        }
      ],
      "name": "etherToWei",
      "outputs": [
        {
          "internalType": "uint256",
          "name": "",
          "type": "uint256"
        }
      ],
      "stateMutability": "pure",
      "type": "function",
      "constant": true
    },
    {
      "inputs": [
        {
          "internalType": "uint256",
          "name": "timeInMin",
          "type": "uint256"
        }
      ],
      "name": "minToSec",
      "outputs": [
        {
          "internalType": "uint256",
          "name": "",
          "type": "uint256"
        }
      ],
      "stateMutability": "pure",
      "type": "function",
      "constant": true
    }
  ],
  "bytecode": "0x610229610053600b82828239805160001a607314610046577f4e487b7100000000000000000000000000000000000000000000000000000000600052600060045260246000fd5b30600052607381538281f3fe73000000000000000000000000000000000000000030146080604052600436106100405760003560e01c8063cd6fb04214610045578063d8916bb914610075575b600080fd5b61005f600480360381019061005a9190610113565b6100a5565b60405161006c919061014f565b60405180910390f35b61008f600480360381019061008a9190610113565b6100bb565b60405161009c919061014f565b60405180910390f35b6000603c826100b49190610199565b9050919050565b6000670de0b6b3a7640000826100d19190610199565b9050919050565b600080fd5b6000819050919050565b6100f0816100dd565b81146100fb57600080fd5b50565b60008135905061010d816100e7565b92915050565b600060208284031215610129576101286100d8565b5b6000610137848285016100fe565b91505092915050565b610149816100dd565b82525050565b60006020820190506101646000830184610140565b92915050565b7f4e487b7100000000000000000000000000000000000000000000000000000000600052601160045260246000fd5b60006101a4826100dd565b91506101af836100dd565b9250817fffffffffffffffffffffffffffffffffffffffffffffffffffffffffffffffff04831182151516156101e8576101e761016a565b5b82820290509291505056fea264697066735822122015a1752c2677997d6c156e9155bff48470326df7e5d8f3bfd0caed1d1513c6d664736f6c63430008090033",
  "immutableReferences": {},
  "source": "// SPDX-License-Identifier: GPL-3.0\npragma solidity >=0.8.9 <=0.9.0;\npragma abicoder v2;\n\nlibrary Utils {\n    function etherToWei(uint256 sumInEth) public pure returns (uint256) {\n        return sumInEth * 1 ether;\n    }\n\n    function minToSec(uint256 timeInMin) public pure returns (uint256) {\n        return timeInMin * 1 minutes;\n    }\n}\n",
  "sourcePath": "/home/mlibre/Data/projects/blockchain/Ethereum/Truffle/contracts/Utils.sol",
  "compiler": {
    "name": "solc",
    "version": "0.8.9+commit.e5eed63a.Emscripten.clang"
  },
  "schemaVersion": "3.3.4",
  "updatedAt": "2021-11-06T18:46:14.995Z",
  "networkType": "ethereum",
  "devdoc": {
    "kind": "dev",
    "methods": {},
    "version": 1
  },
  "userdoc": {
    "kind": "user",
    "methods": {},
    "version": 1
  }
}