{
  "contractName": "CrowdFundingWithDeadline",
  "abi": [
    {
      "inputs": [
        {
          "internalType": "string",
          "name": "contractName",
          "type": "string"
        },
        {
          "internalType": "uint256",
          "name": "targetAmountEth",
          "type": "uint256"
        },
        {
          "internalType": "uint256",
          "name": "durationInMin",
          "type": "uint256"
        },
        {
          "internalType": "address payable",
          "name": "beneficiaryAddress",
          "type": "address"
        }
      ],
      "stateMutability": "nonpayable",
      "type": "constructor"
    },
    {
      "anonymous": false,
      "inputs": [
        {
          "indexed": false,
          "internalType": "address",
          "name": "addr",
          "type": "address"
        },
        {
          "indexed": false,
          "internalType": "uint256",
          "name": "totalCollected",
          "type": "uint256"
        },
        {
          "indexed": false,
          "internalType": "bool",
          "name": "succeeded",
          "type": "bool"
        }
      ],
      "name": "CampaignFinished",
      "type": "event"
    },
    {
      "inputs": [
        {
          "internalType": "address",
          "name": "",
          "type": "address"
        }
      ],
      "name": "amounts",
      "outputs": [
        {
          "internalType": "uint256",
          "name": "",
          "type": "uint256"
        }
      ],
      "stateMutability": "view",
      "type": "function",
      "constant": true
    },
    {
      "inputs": [],
      "name": "beneficiary",
      "outputs": [
        {
          "internalType": "address payable",
          "name": "",
          "type": "address"
        }
      ],
      "stateMutability": "view",
      "type": "function",
      "constant": true
    },
    {
      "inputs": [],
      "name": "collected",
      "outputs": [
        {
          "internalType": "bool",
          "name": "",
          "type": "bool"
        }
      ],
      "stateMutability": "view",
      "type": "function",
      "constant": true
    },
    {
      "inputs": [],
      "name": "fundingDeadline",
      "outputs": [
        {
          "internalType": "uint256",
          "name": "",
          "type": "uint256"
        }
      ],
      "stateMutability": "view",
      "type": "function",
      "constant": true
    },
    {
      "inputs": [],
      "name": "name",
      "outputs": [
        {
          "internalType": "string",
          "name": "",
          "type": "string"
        }
      ],
      "stateMutability": "view",
      "type": "function",
      "constant": true
    },
    {
      "inputs": [],
      "name": "state",
      "outputs": [
        {
          "internalType": "enum CrowdFundingWithDeadline.State",
          "name": "",
          "type": "uint8"
        }
      ],
      "stateMutability": "view",
      "type": "function",
      "constant": true
    },
    {
      "inputs": [],
      "name": "targetAmount",
      "outputs": [
        {
          "internalType": "uint256",
          "name": "",
          "type": "uint256"
        }
      ],
      "stateMutability": "view",
      "type": "function",
      "constant": true
    },
    {
      "inputs": [],
      "name": "totalCollected",
      "outputs": [
        {
          "internalType": "uint256",
          "name": "",
          "type": "uint256"
        }
      ],
      "stateMutability": "view",
      "type": "function",
      "constant": true
    },
    {
      "inputs": [],
      "name": "contribute",
      "outputs": [],
      "stateMutability": "payable",
      "type": "function",
      "payable": true
    },
    {
      "inputs": [],
      "name": "collect",
      "outputs": [],
      "stateMutability": "nonpayable",
      "type": "function"
    },
    {
      "inputs": [],
      "name": "withdraw",
      "outputs": [],
      "stateMutability": "nonpayable",
      "type": "function"
    },
    {
      "inputs": [],
      "name": "finishCrowdFunding",
      "outputs": [],
      "stateMutability": "nonpayable",
      "type": "function"
    },
    {
      "inputs": [],
      "name": "getBlockTime",
      "outputs": [
        {
          "internalType": "uint256",
          "name": "",
          "type": "uint256"
        }
      ],
      "stateMutability": "view",
      "type": "function",
      "constant": true
    },
    {
      "inputs": [],
      "name": "beforeDeadline",
      "outputs": [
        {
          "internalType": "bool",
          "name": "",
          "type": "bool"
        }
      ],
      "stateMutability": "view",
      "type": "function",
      "constant": true
    }
  ],
  "bytecode": "0x60806040523480156200001157600080fd5b506040516200170038038062001700833981810160405281019062000037919062000500565b83600090805190602001906200004f92919062000213565b5073__Utils_________________________________63d8916bb9846040518263ffffffff1660e01b8152600401620000899190620005a2565b60206040518083038186803b158015620000a257600080fd5b505af4158015620000b7573d6000803e3d6000fd5b505050506040513d601f19601f82011682018060405250810190620000dd9190620005bf565b60018190555073__Utils_________________________________63cd6fb042836040518263ffffffff1660e01b81526004016200011c9190620005a2565b60206040518083038186803b1580156200013557600080fd5b505af41580156200014a573d6000803e3d6000fd5b505050506040513d601f19601f82011682018060405250810190620001709190620005bf565b620001806200020b60201b60201c565b6200018c919062000620565b60028190555080600360006101000a81548173ffffffffffffffffffffffffffffffffffffffff021916908373ffffffffffffffffffffffffffffffffffffffff1602179055506000600360146101000a81548160ff02191690836003811115620001fc57620001fb6200067d565b5b02179055505050505062000711565b600042905090565b8280546200022190620006db565b90600052602060002090601f01602090048101928262000245576000855562000291565b82601f106200026057805160ff191683800117855562000291565b8280016001018555821562000291579182015b828111156200029057825182559160200191906001019062000273565b5b509050620002a09190620002a4565b5090565b5b80821115620002bf576000816000905550600101620002a5565b5090565b6000604051905090565b600080fd5b600080fd5b600080fd5b600080fd5b6000601f19601f8301169050919050565b7f4e487b7100000000000000000000000000000000000000000000000000000000600052604160045260246000fd5b6200032c82620002e1565b810181811067ffffffffffffffff821117156200034e576200034d620002f2565b5b80604052505050565b600062000363620002c3565b905062000371828262000321565b919050565b600067ffffffffffffffff821115620003945762000393620002f2565b5b6200039f82620002e1565b9050602081019050919050565b60005b83811015620003cc578082015181840152602081019050620003af565b83811115620003dc576000848401525b50505050565b6000620003f9620003f38462000376565b62000357565b905082815260208101848484011115620004185762000417620002dc565b5b62000425848285620003ac565b509392505050565b600082601f830112620004455762000444620002d7565b5b815162000457848260208601620003e2565b91505092915050565b6000819050919050565b620004758162000460565b81146200048157600080fd5b50565b60008151905062000495816200046a565b92915050565b600073ffffffffffffffffffffffffffffffffffffffff82169050919050565b6000620004c8826200049b565b9050919050565b620004da81620004bb565b8114620004e657600080fd5b50565b600081519050620004fa81620004cf565b92915050565b600080600080608085870312156200051d576200051c620002cd565b5b600085015167ffffffffffffffff8111156200053e576200053d620002d2565b5b6200054c878288016200042d565b94505060206200055f8782880162000484565b9350506040620005728782880162000484565b92505060606200058587828801620004e9565b91505092959194509250565b6200059c8162000460565b82525050565b6000602082019050620005b9600083018462000591565b92915050565b600060208284031215620005d857620005d7620002cd565b5b6000620005e88482850162000484565b91505092915050565b7f4e487b7100000000000000000000000000000000000000000000000000000000600052601160045260246000fd5b60006200062d8262000460565b91506200063a8362000460565b9250827fffffffffffffffffffffffffffffffffffffffffffffffffffffffffffffffff03821115620006725762000671620005f1565b5b828201905092915050565b7f4e487b7100000000000000000000000000000000000000000000000000000000600052602160045260246000fd5b7f4e487b7100000000000000000000000000000000000000000000000000000000600052602260045260246000fd5b60006002820490506001821680620006f457607f821691505b602082108114156200070b576200070a620006ac565b5b50919050565b610fdf80620007216000396000f3fe6080604052600436106100dd5760003560e01c806384bcefd41161007f578063c19d93fb11610059578063c19d93fb1461027a578063d7bb99ba146102a5578063e29eb836146102af578063e5225381146102da576100dd565b806384bcefd4146101f957806387ceff0914610224578063953b8fb81461024f576100dd565b80633ccfd60b116100bb5780633ccfd60b1461014f57806355a3b2c11461016657806368bc0041146101a3578063796b23bb146101ce576100dd565b806306fdde03146100e2578063083dca111461010d57806338af3eed14610124575b600080fd5b3480156100ee57600080fd5b506100f76102f1565b6040516101049190610abd565b60405180910390f35b34801561011957600080fd5b5061012261037f565b005b34801561013057600080fd5b506101396104fd565b6040516101469190610b20565b60405180910390f35b34801561015b57600080fd5b50610164610523565b005b34801561017257600080fd5b5061018d60048036038101906101889190610b7e565b610727565b60405161019a9190610bc4565b60405180910390f35b3480156101af57600080fd5b506101b861073f565b6040516101c59190610bfa565b60405180910390f35b3480156101da57600080fd5b506101e3610752565b6040516101f09190610bc4565b60405180910390f35b34801561020557600080fd5b5061020e610758565b60405161021b9190610bfa565b60405180910390f35b34801561023057600080fd5b5061023961076b565b6040516102469190610bc4565b60405180910390f35b34801561025b57600080fd5b50610264610773565b6040516102719190610bc4565b60405180910390f35b34801561028657600080fd5b5061028f610779565b60405161029c9190610c8c565b60405180910390f35b6102ad61078c565b005b3480156102bb57600080fd5b506102c46108e3565b6040516102d19190610bc4565b60405180910390f35b3480156102e657600080fd5b506102ef6108e9565b005b600080546102fe90610cd6565b80601f016020809104026020016040519081016040528092919081815260200182805461032a90610cd6565b80156103775780601f1061034c57610100808354040283529160200191610377565b820191906000526020600020905b81548152906001019060200180831161035a57829003601f168201915b505050505081565b600080600381111561039457610393610c15565b5b600360149054906101000a900460ff1660038111156103b6576103b5610c15565b5b146103f6576040517f08c379a00000000000000000000000000000000000000000000000000000000081526004016103ed90610d54565b60405180910390fd5b6103fe61073f565b1561043e576040517f08c379a000000000000000000000000000000000000000000000000000000000815260040161043590610de6565b60405180910390fd5b600560009054906101000a900460ff16610482576001600360146101000a81548160ff0219169083600381111561047857610477610c15565b5b02179055506104ae565b6002600360146101000a81548160ff021916908360038111156104a8576104a7610c15565b5b02179055505b7f6fa7e87ebbd87ed4f1c40bba63144f68fd2bb022fb748ab3b61b5411c39bd47433600654600560009054906101000a900460ff166040516104f293929190610e15565b60405180910390a150565b600360009054906101000a900473ffffffffffffffffffffffffffffffffffffffff1681565b600180600381111561053857610537610c15565b5b600360149054906101000a900460ff16600381111561055a57610559610c15565b5b1461059a576040517f08c379a000000000000000000000000000000000000000000000000000000000815260040161059190610d54565b60405180910390fd5b6000600460003373ffffffffffffffffffffffffffffffffffffffff1673ffffffffffffffffffffffffffffffffffffffff168152602001908152602001600020541161061c576040517f08c379a000000000000000000000000000000000000000000000000000000000815260040161061390610e98565b60405180910390fd5b6000600460003373ffffffffffffffffffffffffffffffffffffffff1673ffffffffffffffffffffffffffffffffffffffff1681526020019081526020016000205490506000600460003373ffffffffffffffffffffffffffffffffffffffff1673ffffffffffffffffffffffffffffffffffffffff168152602001908152602001600020819055503373ffffffffffffffffffffffffffffffffffffffff166108fc829081150290604051600060405180830381858888f193505050506107235780600460003373ffffffffffffffffffffffffffffffffffffffff1673ffffffffffffffffffffffffffffffffffffffff168152602001908152602001600020819055505b5050565b60046020528060005260406000206000915090505481565b600060025461074c610a1c565b10905090565b60025481565b600560009054906101000a900460ff1681565b600042905090565b60015481565b600360149054906101000a900460ff1681565b60008060038111156107a1576107a0610c15565b5b600360149054906101000a900460ff1660038111156107c3576107c2610c15565b5b14610803576040517f08c379a00000000000000000000000000000000000000000000000000000000081526004016107fa90610d54565b60405180910390fd5b61080b61073f565b61084a576040517f08c379a000000000000000000000000000000000000000000000000000000000815260040161084190610f04565b60405180910390fd5b34600460003373ffffffffffffffffffffffffffffffffffffffff1673ffffffffffffffffffffffffffffffffffffffff16815260200190815260200160002060008282546108999190610f53565b9250508190555034600660008282546108b29190610f53565b92505081905550600154600654106108e0576001600560006101000a81548160ff0219169083151502179055505b50565b60065481565b60028060038111156108fe576108fd610c15565b5b600360149054906101000a900460ff1660038111156109205761091f610c15565b5b14610960576040517f08c379a000000000000000000000000000000000000000000000000000000000815260040161095790610d54565b60405180910390fd5b600360009054906101000a900473ffffffffffffffffffffffffffffffffffffffff1673ffffffffffffffffffffffffffffffffffffffff166108fc6006549081150290604051600060405180830381858888f19350505050156109ed5760038060146101000a81548160ff021916908360038111156109e3576109e2610c15565b5b0217905550610a19565b6001600360146101000a81548160ff02191690836003811115610a1357610a12610c15565b5b02179055505b50565b600042905090565b600081519050919050565b600082825260208201905092915050565b60005b83811015610a5e578082015181840152602081019050610a43565b83811115610a6d576000848401525b50505050565b6000601f19601f8301169050919050565b6000610a8f82610a24565b610a998185610a2f565b9350610aa9818560208601610a40565b610ab281610a73565b840191505092915050565b60006020820190508181036000830152610ad78184610a84565b905092915050565b600073ffffffffffffffffffffffffffffffffffffffff82169050919050565b6000610b0a82610adf565b9050919050565b610b1a81610aff565b82525050565b6000602082019050610b356000830184610b11565b92915050565b600080fd5b6000610b4b82610adf565b9050919050565b610b5b81610b40565b8114610b6657600080fd5b50565b600081359050610b7881610b52565b92915050565b600060208284031215610b9457610b93610b3b565b5b6000610ba284828501610b69565b91505092915050565b6000819050919050565b610bbe81610bab565b82525050565b6000602082019050610bd96000830184610bb5565b92915050565b60008115159050919050565b610bf481610bdf565b82525050565b6000602082019050610c0f6000830184610beb565b92915050565b7f4e487b7100000000000000000000000000000000000000000000000000000000600052602160045260246000fd5b60048110610c5557610c54610c15565b5b50565b6000819050610c6682610c44565b919050565b6000610c7682610c58565b9050919050565b610c8681610c6b565b82525050565b6000602082019050610ca16000830184610c7d565b92915050565b7f4e487b7100000000000000000000000000000000000000000000000000000000600052602260045260246000fd5b60006002820490506001821680610cee57607f821691505b60208210811415610d0257610d01610ca7565b5b50919050565b7f496e76616c696420536174650000000000000000000000000000000000000000600082015250565b6000610d3e600c83610a2f565b9150610d4982610d08565b602082019050919050565b60006020820190508181036000830152610d6d81610d31565b9050919050565b7f43616e6e6f742066696e6973682063616d706169676e206265666f726520612060008201527f646561646c696e65000000000000000000000000000000000000000000000000602082015250565b6000610dd0602883610a2f565b9150610ddb82610d74565b604082019050919050565b60006020820190508181036000830152610dff81610dc3565b9050919050565b610e0f81610b40565b82525050565b6000606082019050610e2a6000830186610e06565b610e376020830185610bb5565b610e446040830184610beb565b949350505050565b7f4e6f7468696e672077617320636f6e7472696275746564000000000000000000600082015250565b6000610e82601783610a2f565b9150610e8d82610e4c565b602082019050919050565b60006020820190508181036000830152610eb181610e75565b9050919050565b7f446561644c696e65000000000000000000000000000000000000000000000000600082015250565b6000610eee600883610a2f565b9150610ef982610eb8565b602082019050919050565b60006020820190508181036000830152610f1d81610ee1565b9050919050565b7f4e487b7100000000000000000000000000000000000000000000000000000000600052601160045260246000fd5b6000610f5e82610bab565b9150610f6983610bab565b9250827fffffffffffffffffffffffffffffffffffffffffffffffffffffffffffffffff03821115610f9e57610f9d610f24565b5b82820190509291505056fea2646970667358221220a7ce5629869e8e19bd80fefa155c6c6d1893f2f074d7785801bf6c57574af90364736f6c63430008090033",
  "deployedBytecode": "0x6080604052600436106100dd5760003560e01c806384bcefd41161007f578063c19d93fb11610059578063c19d93fb1461027a578063d7bb99ba146102a5578063e29eb836146102af578063e5225381146102da576100dd565b806384bcefd4146101f957806387ceff0914610224578063953b8fb81461024f576100dd565b80633ccfd60b116100bb5780633ccfd60b1461014f57806355a3b2c11461016657806368bc0041146101a3578063796b23bb146101ce576100dd565b806306fdde03146100e2578063083dca111461010d57806338af3eed14610124575b600080fd5b3480156100ee57600080fd5b506100f76102f1565b6040516101049190610abd565b60405180910390f35b34801561011957600080fd5b5061012261037f565b005b34801561013057600080fd5b506101396104fd565b6040516101469190610b20565b60405180910390f35b34801561015b57600080fd5b50610164610523565b005b34801561017257600080fd5b5061018d60048036038101906101889190610b7e565b610727565b60405161019a9190610bc4565b60405180910390f35b3480156101af57600080fd5b506101b861073f565b6040516101c59190610bfa565b60405180910390f35b3480156101da57600080fd5b506101e3610752565b6040516101f09190610bc4565b60405180910390f35b34801561020557600080fd5b5061020e610758565b60405161021b9190610bfa565b60405180910390f35b34801561023057600080fd5b5061023961076b565b6040516102469190610bc4565b60405180910390f35b34801561025b57600080fd5b50610264610773565b6040516102719190610bc4565b60405180910390f35b34801561028657600080fd5b5061028f610779565b60405161029c9190610c8c565b60405180910390f35b6102ad61078c565b005b3480156102bb57600080fd5b506102c46108e3565b6040516102d19190610bc4565b60405180910390f35b3480156102e657600080fd5b506102ef6108e9565b005b600080546102fe90610cd6565b80601f016020809104026020016040519081016040528092919081815260200182805461032a90610cd6565b80156103775780601f1061034c57610100808354040283529160200191610377565b820191906000526020600020905b81548152906001019060200180831161035a57829003601f168201915b505050505081565b600080600381111561039457610393610c15565b5b600360149054906101000a900460ff1660038111156103b6576103b5610c15565b5b146103f6576040517f08c379a00000000000000000000000000000000000000000000000000000000081526004016103ed90610d54565b60405180910390fd5b6103fe61073f565b1561043e576040517f08c379a000000000000000000000000000000000000000000000000000000000815260040161043590610de6565b60405180910390fd5b600560009054906101000a900460ff16610482576001600360146101000a81548160ff0219169083600381111561047857610477610c15565b5b02179055506104ae565b6002600360146101000a81548160ff021916908360038111156104a8576104a7610c15565b5b02179055505b7f6fa7e87ebbd87ed4f1c40bba63144f68fd2bb022fb748ab3b61b5411c39bd47433600654600560009054906101000a900460ff166040516104f293929190610e15565b60405180910390a150565b600360009054906101000a900473ffffffffffffffffffffffffffffffffffffffff1681565b600180600381111561053857610537610c15565b5b600360149054906101000a900460ff16600381111561055a57610559610c15565b5b1461059a576040517f08c379a000000000000000000000000000000000000000000000000000000000815260040161059190610d54565b60405180910390fd5b6000600460003373ffffffffffffffffffffffffffffffffffffffff1673ffffffffffffffffffffffffffffffffffffffff168152602001908152602001600020541161061c576040517f08c379a000000000000000000000000000000000000000000000000000000000815260040161061390610e98565b60405180910390fd5b6000600460003373ffffffffffffffffffffffffffffffffffffffff1673ffffffffffffffffffffffffffffffffffffffff1681526020019081526020016000205490506000600460003373ffffffffffffffffffffffffffffffffffffffff1673ffffffffffffffffffffffffffffffffffffffff168152602001908152602001600020819055503373ffffffffffffffffffffffffffffffffffffffff166108fc829081150290604051600060405180830381858888f193505050506107235780600460003373ffffffffffffffffffffffffffffffffffffffff1673ffffffffffffffffffffffffffffffffffffffff168152602001908152602001600020819055505b5050565b60046020528060005260406000206000915090505481565b600060025461074c610a1c565b10905090565b60025481565b600560009054906101000a900460ff1681565b600042905090565b60015481565b600360149054906101000a900460ff1681565b60008060038111156107a1576107a0610c15565b5b600360149054906101000a900460ff1660038111156107c3576107c2610c15565b5b14610803576040517f08c379a00000000000000000000000000000000000000000000000000000000081526004016107fa90610d54565b60405180910390fd5b61080b61073f565b61084a576040517f08c379a000000000000000000000000000000000000000000000000000000000815260040161084190610f04565b60405180910390fd5b34600460003373ffffffffffffffffffffffffffffffffffffffff1673ffffffffffffffffffffffffffffffffffffffff16815260200190815260200160002060008282546108999190610f53565b9250508190555034600660008282546108b29190610f53565b92505081905550600154600654106108e0576001600560006101000a81548160ff0219169083151502179055505b50565b60065481565b60028060038111156108fe576108fd610c15565b5b600360149054906101000a900460ff1660038111156109205761091f610c15565b5b14610960576040517f08c379a000000000000000000000000000000000000000000000000000000000815260040161095790610d54565b60405180910390fd5b600360009054906101000a900473ffffffffffffffffffffffffffffffffffffffff1673ffffffffffffffffffffffffffffffffffffffff166108fc6006549081150290604051600060405180830381858888f19350505050156109ed5760038060146101000a81548160ff021916908360038111156109e3576109e2610c15565b5b0217905550610a19565b6001600360146101000a81548160ff02191690836003811115610a1357610a12610c15565b5b02179055505b50565b600042905090565b600081519050919050565b600082825260208201905092915050565b60005b83811015610a5e578082015181840152602081019050610a43565b83811115610a6d576000848401525b50505050565b6000601f19601f8301169050919050565b6000610a8f82610a24565b610a998185610a2f565b9350610aa9818560208601610a40565b610ab281610a73565b840191505092915050565b60006020820190508181036000830152610ad78184610a84565b905092915050565b600073ffffffffffffffffffffffffffffffffffffffff82169050919050565b6000610b0a82610adf565b9050919050565b610b1a81610aff565b82525050565b6000602082019050610b356000830184610b11565b92915050565b600080fd5b6000610b4b82610adf565b9050919050565b610b5b81610b40565b8114610b6657600080fd5b50565b600081359050610b7881610b52565b92915050565b600060208284031215610b9457610b93610b3b565b5b6000610ba284828501610b69565b91505092915050565b6000819050919050565b610bbe81610bab565b82525050565b6000602082019050610bd96000830184610bb5565b92915050565b60008115159050919050565b610bf481610bdf565b82525050565b6000602082019050610c0f6000830184610beb565b92915050565b7f4e487b7100000000000000000000000000000000000000000000000000000000600052602160045260246000fd5b60048110610c5557610c54610c15565b5b50565b6000819050610c6682610c44565b919050565b6000610c7682610c58565b9050919050565b610c8681610c6b565b82525050565b6000602082019050610ca16000830184610c7d565b92915050565b7f4e487b7100000000000000000000000000000000000000000000000000000000600052602260045260246000fd5b60006002820490506001821680610cee57607f821691505b60208210811415610d0257610d01610ca7565b5b50919050565b7f496e76616c696420536174650000000000000000000000000000000000000000600082015250565b6000610d3e600c83610a2f565b9150610d4982610d08565b602082019050919050565b60006020820190508181036000830152610d6d81610d31565b9050919050565b7f43616e6e6f742066696e6973682063616d706169676e206265666f726520612060008201527f646561646c696e65000000000000000000000000000000000000000000000000602082015250565b6000610dd0602883610a2f565b9150610ddb82610d74565b604082019050919050565b60006020820190508181036000830152610dff81610dc3565b9050919050565b610e0f81610b40565b82525050565b6000606082019050610e2a6000830186610e06565b610e376020830185610bb5565b610e446040830184610beb565b949350505050565b7f4e6f7468696e672077617320636f6e7472696275746564000000000000000000600082015250565b6000610e82601783610a2f565b9150610e8d82610e4c565b602082019050919050565b60006020820190508181036000830152610eb181610e75565b9050919050565b7f446561644c696e65000000000000000000000000000000000000000000000000600082015250565b6000610eee600883610a2f565b9150610ef982610eb8565b602082019050919050565b60006020820190508181036000830152610f1d81610ee1565b9050919050565b7f4e487b7100000000000000000000000000000000000000000000000000000000600052601160045260246000fd5b6000610f5e82610bab565b9150610f6983610bab565b9250827fffffffffffffffffffffffffffffffffffffffffffffffffffffffffffffffff03821115610f9e57610f9d610f24565b5b82820190509291505056fea2646970667358221220a7ce5629869e8e19bd80fefa155c6c6d1893f2f074d7785801bf6c57574af90364736f6c63430008090033",
  "immutableReferences": {},
  "source": "// SPDX-License-Identifier: GPL-3.0\npragma solidity >=0.8.9 <=0.9.0;\npragma abicoder v2;\nimport \"./Utils.sol\";\n\ncontract CrowdFundingWithDeadline {\n    using Utils for *;\n    event CampaignFinished(\n        address addr,\n        uint256 totalCollected,\n        bool succeeded\n    );\n    enum State {\n        Ongoing,\n        Failed,\n        Succeeded,\n        Paidout\n    }\n    string public name;\n    uint256 public targetAmount;\n    uint256 public fundingDeadline;\n    address payable public beneficiary;\n    State public state;\n    mapping(address => uint256) public amounts;\n    bool public collected;\n    uint256 public totalCollected;\n\n    constructor(\n        string memory contractName,\n        uint256 targetAmountEth,\n        uint256 durationInMin,\n        address payable beneficiaryAddress\n    ) {\n        name = contractName;\n        targetAmount = Utils.etherToWei(targetAmountEth);\n        fundingDeadline = currentTime() + Utils.minToSec(durationInMin);\n        beneficiary = beneficiaryAddress;\n        state = State.Ongoing;\n    }\n\n    modifier inState(State expectedSate) {\n        require(state == expectedSate, \"Invalid Sate\");\n        _;\n    }\n\n    function contribute() public payable inState(State.Ongoing) {\n        require(beforeDeadline(), \"DeadLine\");\n        amounts[msg.sender] += msg.value;\n        totalCollected += msg.value;\n        if (totalCollected >= targetAmount) {\n            collected = true;\n        }\n    }\n\n    function collect() public inState(State.Succeeded) {\n        if (beneficiary.send(totalCollected)) {\n            state = State.Paidout;\n        } else {\n            state = State.Failed;\n        }\n    }\n\n    function withdraw() public inState(State.Failed) {\n        require(amounts[msg.sender] > 0, \"Nothing was contributed\");\n        uint256 contributed = amounts[msg.sender];\n        amounts[msg.sender] = 0;\n        if (!payable(msg.sender).send(contributed)) {\n            amounts[msg.sender] = contributed;\n        }\n    }\n\n    function finishCrowdFunding() public inState(State.Ongoing) {\n        require(!beforeDeadline(), \"Cannot finish campaign before a deadline\");\n        if (!collected) {\n            state = State.Failed;\n        } else {\n            state = State.Succeeded;\n        }\n        emit CampaignFinished(msg.sender, totalCollected, collected);\n    }\n\n    function currentTime() internal view virtual returns (uint256) {\n        return block.timestamp;\n    }\n\n    function getBlockTime() public view returns (uint256) {\n        return block.timestamp;\n    }\n\n    function beforeDeadline() public view returns (bool) {\n        return currentTime() < fundingDeadline;\n    }\n}\n",
  "sourcePath": "/home/mlibre/Data/projects/blockchain/Ethereum/Truffle/contracts/CrowdFundingWithDeadline.sol",
  "compiler": {
    "name": "solc",
    "version": "0.8.9+commit.e5eed63a.Emscripten.clang"
  },
  "schemaVersion": "3.3.4",
  "updatedAt": "2021-11-06T18:46:15.385Z",
  "networkType": "ethereum",
  "devdoc": {
    "kind": "dev",
    "methods": {},
    "version": 1
  },
  "userdoc": {
    "kind": "user",
    "methods": {},
    "version": 1
  }
}